{
  "contractName": "SmartLottery",
  "abi": [
    {
      "inputs": [
        {
          "internalType": "uint8",
          "name": "_maxTicketsPlayer",
          "type": "uint8"
        },
        {
          "internalType": "address",
          "name": "_vrfCoordinator",
          "type": "address"
        },
        {
          "internalType": "address",
          "name": "_proxyFeed",
          "type": "address"
        },
        {
          "internalType": "bytes32",
          "name": "_keyHash",
          "type": "bytes32"
        },
        {
          "internalType": "uint8",
          "name": "_intervalDays",
          "type": "uint8"
        },
        {
          "internalType": "uint8",
          "name": "_ticketPrice",
          "type": "uint8"
        }
      ],
      "stateMutability": "nonpayable",
      "type": "constructor"
    },
    {
      "inputs": [],
      "name": "InvalidAddress",
      "type": "error"
    },
    {
      "inputs": [],
      "name": "NotAllowBuy",
      "type": "error"
    },
    {
      "inputs": [],
      "name": "NotAllowBuyMore",
      "type": "error"
    },
    {
      "inputs": [
        {
          "internalType": "int256",
          "name": "requested",
          "type": "int256"
        },
        {
          "internalType": "int256",
          "name": "available",
          "type": "int256"
        }
      ],
      "name": "NotEnoughFunds",
      "type": "error"
    },
    {
      "inputs": [],
      "name": "NotPickWinnerYet",
      "type": "error"
    },
    {
      "inputs": [],
      "name": "NotWinnerSelectedError",
      "type": "error"
    },
    {
      "inputs": [
        {
          "internalType": "address",
          "name": "have",
          "type": "address"
        },
        {
          "internalType": "address",
          "name": "want",
          "type": "address"
        }
      ],
      "name": "OnlyCoordinatorCanFulfill",
      "type": "error"
    },
    {
      "inputs": [
        {
          "internalType": "uint8",
          "name": "number",
          "type": "uint8"
        },
        {
          "internalType": "uint16",
          "name": "serial",
          "type": "uint16"
        }
      ],
      "name": "TicketAlreadyBought",
      "type": "error"
    },
    {
      "inputs": [
        {
          "internalType": "uint256",
          "name": "blocTimestamp",
          "type": "uint256"
        },
        {
          "internalType": "uint256",
          "name": "lockTime",
          "type": "uint256"
        }
      ],
      "name": "TimeLockError",
      "type": "error"
    },
    {
      "anonymous": false,
      "inputs": [
        {
          "indexed": true,
          "internalType": "address",
          "name": "buyer",
          "type": "address"
        },
        {
          "indexed": false,
          "internalType": "uint8",
          "name": "number",
          "type": "uint8"
        },
        {
          "indexed": false,
          "internalType": "uint16",
          "name": "serial",
          "type": "uint16"
        },
        {
          "indexed": false,
          "internalType": "uint256",
          "name": "date",
          "type": "uint256"
        }
      ],
      "name": "BoughtTicket",
      "type": "event"
    },
    {
      "anonymous": false,
      "inputs": [
        {
          "indexed": true,
          "internalType": "address",
          "name": "previousOwner",
          "type": "address"
        },
        {
          "indexed": true,
          "internalType": "address",
          "name": "newOwner",
          "type": "address"
        }
      ],
      "name": "OwnershipTransferred",
      "type": "event"
    },
    {
      "anonymous": false,
      "inputs": [
        {
          "indexed": false,
          "internalType": "address",
          "name": "account",
          "type": "address"
        }
      ],
      "name": "Paused",
      "type": "event"
    },
    {
      "anonymous": false,
      "inputs": [
        {
          "indexed": false,
          "internalType": "uint8",
          "name": "number",
          "type": "uint8"
        },
        {
          "indexed": false,
          "internalType": "uint16",
          "name": "serial",
          "type": "uint16"
        },
        {
          "indexed": false,
          "internalType": "uint256",
          "name": "date",
          "type": "uint256"
        }
      ],
      "name": "PickedWinner",
      "type": "event"
    },
    {
      "anonymous": false,
      "inputs": [
        {
          "indexed": false,
          "internalType": "uint8",
          "name": "number",
          "type": "uint8"
        },
        {
          "indexed": false,
          "internalType": "uint16",
          "name": "serial",
          "type": "uint16"
        },
        {
          "indexed": false,
          "internalType": "uint256",
          "name": "date",
          "type": "uint256"
        }
      ],
      "name": "TheresNoWinner",
      "type": "event"
    },
    {
      "anonymous": false,
      "inputs": [
        {
          "indexed": false,
          "internalType": "address",
          "name": "account",
          "type": "address"
        }
      ],
      "name": "Unpaused",
      "type": "event"
    },
    {
      "inputs": [
        {
          "internalType": "address",
          "name": "",
          "type": "address"
        },
        {
          "internalType": "uint256",
          "name": "",
          "type": "uint256"
        }
      ],
      "name": "game",
      "outputs": [
        {
          "internalType": "address payable",
          "name": "buyer",
          "type": "address"
        },
        {
          "internalType": "uint8",
          "name": "number",
          "type": "uint8"
        },
        {
          "internalType": "uint16",
          "name": "serial",
          "type": "uint16"
        },
        {
          "internalType": "uint256",
          "name": "date",
          "type": "uint256"
        },
        {
          "internalType": "bool",
          "name": "winner",
          "type": "bool"
        },
        {
          "internalType": "bool",
          "name": "alwaysWinner",
          "type": "bool"
        }
      ],
      "stateMutability": "view",
      "type": "function",
      "constant": true
    },
    {
      "inputs": [],
      "name": "lockTime",
      "outputs": [
        {
          "internalType": "uint256",
          "name": "",
          "type": "uint256"
        }
      ],
      "stateMutability": "view",
      "type": "function",
      "constant": true
    },
    {
      "inputs": [],
      "name": "owner",
      "outputs": [
        {
          "internalType": "address",
          "name": "",
          "type": "address"
        }
      ],
      "stateMutability": "view",
      "type": "function",
      "constant": true
    },
    {
      "inputs": [],
      "name": "paused",
      "outputs": [
        {
          "internalType": "bool",
          "name": "",
          "type": "bool"
        }
      ],
      "stateMutability": "view",
      "type": "function",
      "constant": true
    },
    {
      "inputs": [
        {
          "internalType": "uint256",
          "name": "",
          "type": "uint256"
        }
      ],
      "name": "players",
      "outputs": [
        {
          "internalType": "address",
          "name": "",
          "type": "address"
        }
      ],
      "stateMutability": "view",
      "type": "function",
      "constant": true
    },
    {
      "inputs": [
        {
          "internalType": "uint256",
          "name": "requestId",
          "type": "uint256"
        },
        {
          "internalType": "uint256[]",
          "name": "randomWords",
          "type": "uint256[]"
        }
      ],
      "name": "rawFulfillRandomWords",
      "outputs": [],
      "stateMutability": "nonpayable",
      "type": "function"
    },
    {
      "inputs": [],
      "name": "renounceOwnership",
      "outputs": [],
      "stateMutability": "nonpayable",
      "type": "function"
    },
    {
      "inputs": [],
      "name": "s_requestId",
      "outputs": [
        {
          "internalType": "uint256",
          "name": "",
          "type": "uint256"
        }
      ],
      "stateMutability": "view",
      "type": "function",
      "constant": true
    },
    {
      "inputs": [],
      "name": "s_subscriptionId",
      "outputs": [
        {
          "internalType": "uint64",
          "name": "",
          "type": "uint64"
        }
      ],
      "stateMutability": "view",
      "type": "function",
      "constant": true
    },
    {
      "inputs": [
        {
          "internalType": "address",
          "name": "newOwner",
          "type": "address"
        }
      ],
      "name": "transferOwnership",
      "outputs": [],
      "stateMutability": "nonpayable",
      "type": "function"
    },
    {
      "stateMutability": "payable",
      "type": "receive",
      "payable": true
    },
    {
      "inputs": [
        {
          "internalType": "uint8",
          "name": "number",
          "type": "uint8"
        },
        {
          "internalType": "uint16",
          "name": "serial",
          "type": "uint16"
        },
        {
          "internalType": "bool",
          "name": "_alwaysWinner",
          "type": "bool"
        }
      ],
      "name": "buyTicket",
      "outputs": [],
      "stateMutability": "payable",
      "type": "function",
      "payable": true
    },
    {
      "inputs": [],
      "name": "pickWinner",
      "outputs": [],
      "stateMutability": "nonpayable",
      "type": "function"
    },
    {
      "inputs": [],
      "name": "payWinner",
      "outputs": [],
      "stateMutability": "nonpayable",
      "type": "function"
    },
    {
      "inputs": [],
      "name": "getPot",
      "outputs": [
        {
          "internalType": "uint256",
          "name": "",
          "type": "uint256"
        }
      ],
      "stateMutability": "view",
      "type": "function",
      "constant": true
    }
  ],
  "bytecode": "0x6101806040523480156200001257600080fd5b50604051620040cc380380620040cc83398181016040528101906200003891906200055b565b84620000596200004d620001c060201b60201c565b620001c860201b60201c565b600180819055508073ffffffffffffffffffffffffffffffffffffffff1660808173ffffffffffffffffffffffffffffffffffffffff1681525050506000600260006101000a81548160ff0219169083151502179055508560ff166101008160ff16815250508473ffffffffffffffffffffffffffffffffffffffff1660a08173ffffffffffffffffffffffffffffffffffffffff16815250508373ffffffffffffffffffffffffffffffffffffffff1660c08173ffffffffffffffffffffffffffffffffffffffff16815250508260e08181525050620151808260ff1662000143919062000635565b62ffffff164262000155919062000683565b6007819055508160ff166101208160ff16815250506001600860006101000a81548160ff0219169083151502179055508060ff166101608160ff1681525050601260ff166101408160ff1681525050620001b46200028c60201b60201c565b50505050505062000804565b600033905090565b60008060009054906101000a900473ffffffffffffffffffffffffffffffffffffffff169050816000806101000a81548173ffffffffffffffffffffffffffffffffffffffff021916908373ffffffffffffffffffffffffffffffffffffffff1602179055508173ffffffffffffffffffffffffffffffffffffffff168173ffffffffffffffffffffffffffffffffffffffff167f8be0079c531659141344cd1fd0a4f28419497f9722a3daafe3b4186f6b6457e060405160405180910390a35050565b6000600167ffffffffffffffff811115620002ac57620002ab620006e0565b5b604051908082528060200260200182016040528015620002db5781602001602082028036833780820191505090505b5090503081600081518110620002f657620002f56200070f565b5b602002602001019073ffffffffffffffffffffffffffffffffffffffff16908173ffffffffffffffffffffffffffffffffffffffff168152505060a05173ffffffffffffffffffffffffffffffffffffffff1663a21a23e46040518163ffffffff1660e01b81526004016020604051808303816000875af115801562000380573d6000803e3d6000fd5b505050506040513d601f19601f82011682018060405250810190620003a6919062000783565b600460006101000a81548167ffffffffffffffff021916908367ffffffffffffffff16021790555060a05173ffffffffffffffffffffffffffffffffffffffff16637341c10c600460009054906101000a900467ffffffffffffffff16836000815181106200041a57620004196200070f565b5b60200260200101516040518363ffffffff1660e01b815260040162000441929190620007d7565b600060405180830381600087803b1580156200045c57600080fd5b505af115801562000471573d6000803e3d6000fd5b5050505050565b600080fd5b600060ff82169050919050565b62000495816200047d565b8114620004a157600080fd5b50565b600081519050620004b5816200048a565b92915050565b600073ffffffffffffffffffffffffffffffffffffffff82169050919050565b6000620004e882620004bb565b9050919050565b620004fa81620004db565b81146200050657600080fd5b50565b6000815190506200051a81620004ef565b92915050565b6000819050919050565b620005358162000520565b81146200054157600080fd5b50565b60008151905062000555816200052a565b92915050565b60008060008060008060c087890312156200057b576200057a62000478565b5b60006200058b89828a01620004a4565b96505060206200059e89828a0162000509565b9550506040620005b189828a0162000509565b9450506060620005c489828a0162000544565b9350506080620005d789828a01620004a4565b92505060a0620005ea89828a01620004a4565b9150509295509295509295565b600062ffffff82169050919050565b7f4e487b7100000000000000000000000000000000000000000000000000000000600052601160045260246000fd5b60006200064282620005f7565b91506200064f83620005f7565b92508162ffffff04831182151516156200066e576200066d62000606565b5b828202905092915050565b6000819050919050565b6000620006908262000679565b91506200069d8362000679565b9250827fffffffffffffffffffffffffffffffffffffffffffffffffffffffffffffffff03821115620006d557620006d462000606565b5b828201905092915050565b7f4e487b7100000000000000000000000000000000000000000000000000000000600052604160045260246000fd5b7f4e487b7100000000000000000000000000000000000000000000000000000000600052603260045260246000fd5b600067ffffffffffffffff82169050919050565b6200075d816200073e565b81146200076957600080fd5b50565b6000815190506200077d8162000752565b92915050565b6000602082840312156200079c576200079b62000478565b5b6000620007ac848285016200076c565b91505092915050565b620007c0816200073e565b82525050565b620007d181620004db565b82525050565b6000604082019050620007ee6000830185620007b5565b620007fd6020830184620007c6565b9392505050565b60805160a05160c05160e0516101005161012051610140516101605161383862000894600039600081816104a001528181610e1a0152611667015260008181611594015281816115c3015261160f01526000610f3e015260006108bf015260006112e501526000818161145701526114ee015260006112a9015260008181610329015261037d01526138386000f3fe6080604052600436106100e15760003560e01c80638ac000211161007f578063be71248a11610059578063be71248a14610279578063e89e106a14610290578063f2fde38b146102bb578063f71d96cb146102e4576100e8565b80638ac00021146102075780638da5cb5b146102325780639efa13ca1461025d576100e8565b8063403c9fa8116100bb578063403c9fa8146101835780635c975abb146101ae5780635d495aea146101d9578063715018a6146101f0576100e8565b80630d668087146100ed5780631fe543e31461011857806322afd2af14610141576100e8565b366100e857005b600080fd5b3480156100f957600080fd5b50610102610321565b60405161010f91906128a5565b60405180910390f35b34801561012457600080fd5b5061013f600480360381019061013a9190612a59565b610327565b005b34801561014d57600080fd5b5061016860048036038101906101639190612b13565b6103e7565b60405161017a96959493929190612bc8565b60405180910390f35b34801561018f57600080fd5b50610198610495565b6040516101a591906128a5565b60405180910390f35b3480156101ba57600080fd5b506101c36104fb565b6040516101d09190612c29565b60405180910390f35b3480156101e557600080fd5b506101ee610512565b005b3480156101fc57600080fd5b5061020561069a565b005b34801561021357600080fd5b5061021c610722565b6040516102299190612c67565b60405180910390f35b34801561023e57600080fd5b5061024761073c565b6040516102549190612c91565b60405180910390f35b61027760048036038101906102729190612d30565b610765565b005b34801561028557600080fd5b5061028e610ca8565b005b34801561029c57600080fd5b506102a5610f8c565b6040516102b291906128a5565b60405180910390f35b3480156102c757600080fd5b506102e260048036038101906102dd9190612d83565b610f92565b005b3480156102f057600080fd5b5061030b60048036038101906103069190612db0565b611089565b6040516103189190612c91565b60405180910390f35b60075481565b7f000000000000000000000000000000000000000000000000000000000000000073ffffffffffffffffffffffffffffffffffffffff163373ffffffffffffffffffffffffffffffffffffffff16146103d957337f00000000000000000000000000000000000000000000000000000000000000006040517f1cf993f40000000000000000000000000000000000000000000000000000000081526004016103d0929190612ddd565b60405180910390fd5b6103e382826110c8565b5050565b6005602052816000526040600020818154811061040357600080fd5b9060005260206000209060030201600091509150508060000160009054906101000a900473ffffffffffffffffffffffffffffffffffffffff16908060000160149054906101000a900460ff16908060000160159054906101000a900461ffff16908060010154908060020160009054906101000a900460ff16908060020160019054906101000a900460ff16905086565b6000806006805490507f000000000000000000000000000000000000000000000000000000000000000060ff166104cc9190612e35565b90506104f5600a6104e760648461122b90919063ffffffff16565b61124190919063ffffffff16565b91505090565b6000600260009054906101000a900460ff16905090565b61051a611257565b73ffffffffffffffffffffffffffffffffffffffff1661053861073c565b73ffffffffffffffffffffffffffffffffffffffff161461058e576040517f08c379a000000000000000000000000000000000000000000000000000000000815260040161058590612eec565b60405180910390fd5b6002600154036105d3576040517f08c379a00000000000000000000000000000000000000000000000000000000081526004016105ca90612f58565b60405180910390fd5b60026001819055506105e36104fb565b15610623576040517f08c379a000000000000000000000000000000000000000000000000000000000815260040161061a90612fc4565b60405180910390fd5b60075442111561066e57426007546040517f9e45c394000000000000000000000000000000000000000000000000000000008152600401610665929190612fe4565b60405180910390fd5b6000600860006101000a81548160ff02191690831515021790555061069161125f565b60018081905550565b6106a2611257565b73ffffffffffffffffffffffffffffffffffffffff166106c061073c565b73ffffffffffffffffffffffffffffffffffffffff1614610716576040517f08c379a000000000000000000000000000000000000000000000000000000000815260040161070d90612eec565b60405180910390fd5b610720600061138e565b565b600460009054906101000a900467ffffffffffffffff1681565b60008060009054906101000a900473ffffffffffffffffffffffffffffffffffffffff16905090565b6002600154036107aa576040517f08c379a00000000000000000000000000000000000000000000000000000000081526004016107a190612f58565b60405180910390fd5b60026001819055506107ba6104fb565b156107fa576040517f08c379a00000000000000000000000000000000000000000000000000000000081526004016107f190612fc4565b60405180910390fd5b600860009054906101000a900460ff16610840576040517f57b237a500000000000000000000000000000000000000000000000000000000815260040160405180910390fd5b600061085261084d611452565b611660565b90506000349050600081148061086757508181125b156108ab5781816040517fffbdeedb0000000000000000000000000000000000000000000000000000000081526004016108a2929190613026565b60405180910390fd5b600033905060006108bb82611712565b90507f000000000000000000000000000000000000000000000000000000000000000060ff168160ff161061091c576040517fdb095a3600000000000000000000000000000000000000000000000000000000815260040160405180910390fd5b61092687876118ef565b1561096a5786866040517fbe71179500000000000000000000000000000000000000000000000000000000815260040161096192919061304f565b60405180910390fd5b6000600560008473ffffffffffffffffffffffffffffffffffffffff1673ffffffffffffffffffffffffffffffffffffffff1681526020019081526020016000209050806040518060c001604052808573ffffffffffffffffffffffffffffffffffffffff1681526020018a60ff1681526020018961ffff168152602001428152602001600015158152602001881515815250908060018154018082558091505060019003906000526020600020906003020160009091909190915060008201518160000160006101000a81548173ffffffffffffffffffffffffffffffffffffffff021916908373ffffffffffffffffffffffffffffffffffffffff16021790555060208201518160000160146101000a81548160ff021916908360ff16021790555060408201518160000160156101000a81548161ffff021916908361ffff1602179055506060820151816001015560808201518160020160006101000a81548160ff02191690831515021790555060a08201518160020160016101000a81548160ff0219169083151502179055505050610b0683611b45565b610b6e576006839080600181540180825580915050600190039060005260206000200160009091909190916101000a81548173ffffffffffffffffffffffffffffffffffffffff021916908373ffffffffffffffffffffffffffffffffffffffff1602179055505b808260ff1681548110610b8457610b83613078565b5b906000526020600020906003020160000160009054906101000a900473ffffffffffffffffffffffffffffffffffffffff1673ffffffffffffffffffffffffffffffffffffffff167f38453773c77c295a02346b2535a0debe0b305fc683e3756d27c3d6d46b89f135828460ff1681548110610c0357610c02613078565b5b906000526020600020906003020160000160149054906101000a900460ff16838560ff1681548110610c3857610c37613078565b5b906000526020600020906003020160000160159054906101000a900461ffff16848660ff1681548110610c6e57610c6d613078565b5b906000526020600020906003020160010154604051610c8f939291906130a7565b60405180910390a2505050505060018081905550505050565b610cb0611257565b73ffffffffffffffffffffffffffffffffffffffff16610cce61073c565b73ffffffffffffffffffffffffffffffffffffffff1614610d24576040517f08c379a0000000000000000000000000000000000000000000000000000000008152600401610d1b90612eec565b60405180910390fd5b600260015403610d69576040517f08c379a0000000000000000000000000000000000000000000000000000000008152600401610d6090612f58565b60405180910390fd5b6002600181905550610d796104fb565b15610db9576040517f08c379a0000000000000000000000000000000000000000000000000000000008152600401610db090612fc4565b60405180910390fd5b600754421015610e0457426007546040517f9e45c394000000000000000000000000000000000000000000000000000000008152600401610dfb929190612fe4565b60405180910390fd5b6000610e0e611bef565b905060006006805490507f000000000000000000000000000000000000000000000000000000000000000060ff16610e469190612e35565b90506000610e52610495565b9050600073ffffffffffffffffffffffffffffffffffffffff168373ffffffffffffffffffffffffffffffffffffffff1614610ed0578273ffffffffffffffffffffffffffffffffffffffff166108fc829081150290604051600060405180830381858888f19350505050158015610ece573d6000803e3d6000fd5b505b610ed861073c565b73ffffffffffffffffffffffffffffffffffffffff166108fc610f048385611e6090919063ffffffff16565b9081150290604051600060405180830381858888f19350505050158015610f2f573d6000803e3d6000fd5b50610f38611e76565b620151807f000000000000000000000000000000000000000000000000000000000000000060ff16610f6a91906130ed565b62ffffff1642610f7a919061312a565b60078190555050505060018081905550565b60035481565b610f9a611257565b73ffffffffffffffffffffffffffffffffffffffff16610fb861073c565b73ffffffffffffffffffffffffffffffffffffffff161461100e576040517f08c379a000000000000000000000000000000000000000000000000000000000815260040161100590612eec565b60405180910390fd5b600073ffffffffffffffffffffffffffffffffffffffff168173ffffffffffffffffffffffffffffffffffffffff160361107d576040517f08c379a0000000000000000000000000000000000000000000000000000000008152600401611074906131f2565b60405180910390fd5b6110868161138e565b50565b6006818154811061109957600080fd5b906000526020600020016000915054906101000a900473ffffffffffffffffffffffffffffffffffffffff1681565b6110d061273c565b6110d8611f4a565b15611130576110e68261219a565b90507fb0a81b04e908029e501dc392b93045b25997d2201812fbb28d7f8e13d8b63c3f8160200151826040015142604051611123939291906130a7565b60405180910390a1611226565b600060638360008151811061114857611147613078565b5b602002602001015161115a9190613241565b905060006103e78460018151811061117557611174613078565b5b60200260200101516111879190613241565b905061119382826124d1565b92508260800151156111e7577fb0a81b04e908029e501dc392b93045b25997d2201812fbb28d7f8e13d8b63c3f83602001518460400151426040516111da939291906130a7565b60405180910390a1611223565b7f8eadfb2988290002aa0e7888ac53cf55d4a3833bb50377e15a8b08eb635f7dc582824260405161121a939291906130a7565b60405180910390a15b50505b505050565b600081836112399190613272565b905092915050565b6000818361124f9190612e35565b905092915050565b600033905090565b6112676104fb565b156112a7576040517f08c379a000000000000000000000000000000000000000000000000000000000815260040161129e90612fc4565b60405180910390fd5b7f000000000000000000000000000000000000000000000000000000000000000073ffffffffffffffffffffffffffffffffffffffff16635d3b1d307f0000000000000000000000000000000000000000000000000000000000000000600460009054906101000a900467ffffffffffffffff166014620186a060026040518663ffffffff1660e01b81526004016113439594939291906132db565b6020604051808303816000875af1158015611362573d6000803e3d6000fd5b505050506040513d601f19601f820116820180604052508101906113869190613343565b600381905550565b60008060009054906101000a900473ffffffffffffffffffffffffffffffffffffffff169050816000806101000a81548173ffffffffffffffffffffffffffffffffffffffff021916908373ffffffffffffffffffffffffffffffffffffffff1602179055508173ffffffffffffffffffffffffffffffffffffffff168173ffffffffffffffffffffffffffffffffffffffff167f8be0079c531659141344cd1fd0a4f28419497f9722a3daafe3b4186f6b6457e060405160405180910390a35050565b6000807f000000000000000000000000000000000000000000000000000000000000000073ffffffffffffffffffffffffffffffffffffffff1663feaf968c6040518163ffffffff1660e01b815260040160a060405180830381865afa1580156114c0573d6000803e3d6000fd5b505050506040513d601f19601f820116820180604052508101906114e491906133de565b50505091505060007f000000000000000000000000000000000000000000000000000000000000000073ffffffffffffffffffffffffffffffffffffffff1663313ce5676040518163ffffffff1660e01b8152600401602060405180830381865afa158015611557573d6000803e3d6000fd5b505050506040513d601f19601f8201168201806040525081019061157b919061346e565b9050600060128260ff160361159257829050611657565b7f000000000000000000000000000000000000000000000000000000000000000060ff168260ff16101561160d57817f00000000000000000000000000000000000000000000000000000000000000006115ec919061349b565b60ff16600a6115fb9190613602565b83611606919061364d565b9050611656565b7f000000000000000000000000000000000000000000000000000000000000000082611639919061349b565b60ff16600a6116489190613602565b83611653919061364d565b90505b5b80935050505090565b60008060007f000000000000000000000000000000000000000000000000000000000000000060000b90506000670de0b6b3a7640000826116a1919061364d565b90506001670de0b6b3a7640000866116b99190613764565b13156116e557670de0b6b3a764000081866116d49190613764565b6116de919061364d565b9250611707565b670de0b6b3a764000085826116fa919061364d565b6117049190613764565b92505b829350505050919050565b60008073ffffffffffffffffffffffffffffffffffffffff168273ffffffffffffffffffffffffffffffffffffffff1603611779576040517fe6c4247b00000000000000000000000000000000000000000000000000000000815260040160405180910390fd5b6000600560008473ffffffffffffffffffffffffffffffffffffffff1673ffffffffffffffffffffffffffffffffffffffff168152602001908152602001600020805480602002602001604051908101604052809291908181526020016000905b828210156118df57838290600052602060002090600302016040518060c00160405290816000820160009054906101000a900473ffffffffffffffffffffffffffffffffffffffff1673ffffffffffffffffffffffffffffffffffffffff1673ffffffffffffffffffffffffffffffffffffffff1681526020016000820160149054906101000a900460ff1660ff1660ff1681526020016000820160159054906101000a900461ffff1661ffff1661ffff168152602001600182015481526020016002820160009054906101000a900460ff161515151581526020016002820160019054906101000a900460ff161515151581525050815260200190600101906117da565b5050505090508051915050919050565b600080600090505b600680549050811015611b39576000600560006006848154811061191e5761191d613078565b5b9060005260206000200160009054906101000a900473ffffffffffffffffffffffffffffffffffffffff1673ffffffffffffffffffffffffffffffffffffffff1673ffffffffffffffffffffffffffffffffffffffff168152602001908152602001600020805480602002602001604051908101604052809291908181526020016000905b82821015611aa857838290600052602060002090600302016040518060c00160405290816000820160009054906101000a900473ffffffffffffffffffffffffffffffffffffffff1673ffffffffffffffffffffffffffffffffffffffff1673ffffffffffffffffffffffffffffffffffffffff1681526020016000820160149054906101000a900460ff1660ff1660ff1681526020016000820160159054906101000a900461ffff1661ffff1661ffff168152602001600182015481526020016002820160009054906101000a900460ff161515151581526020016002820160019054906101000a900460ff161515151581525050815260200190600101906119a3565b50505050905060005b81518160ff161015611b28576000828260ff1681518110611ad557611ad4613078565b5b602002602001015190508660ff16816020015160ff16148015611b0357508561ffff16816040015161ffff16145b15611b15576001945050505050611b3f565b50611b228160ff1661272f565b50611ab1565b5050611b338161272f565b506118f7565b50600090505b92915050565b600080600090505b600680549050811015611be4578273ffffffffffffffffffffffffffffffffffffffff1660068281548110611b8557611b84613078565b5b9060005260206000200160009054906101000a900473ffffffffffffffffffffffffffffffffffffffff1673ffffffffffffffffffffffffffffffffffffffff1603611bd5576001915050611bea565b611bde8161272f565b50611b4d565b50600090505b919050565b600080600090505b600680549050811015611e575760006005600060068481548110611c1e57611c1d613078565b5b9060005260206000200160009054906101000a900473ffffffffffffffffffffffffffffffffffffffff1673ffffffffffffffffffffffffffffffffffffffff1673ffffffffffffffffffffffffffffffffffffffff168152602001908152602001600020805480602002602001604051908101604052809291908181526020016000905b82821015611da857838290600052602060002090600302016040518060c00160405290816000820160009054906101000a900473ffffffffffffffffffffffffffffffffffffffff1673ffffffffffffffffffffffffffffffffffffffff1673ffffffffffffffffffffffffffffffffffffffff1681526020016000820160149054906101000a900460ff1660ff1660ff1681526020016000820160159054906101000a900461ffff1661ffff1661ffff168152602001600182015481526020016002820160009054906101000a900460ff161515151581526020016002820160019054906101000a900460ff16151515158152505081526020019060010190611ca3565b50505050905060005b81518160ff161015611e46576000828260ff1681518110611dd557611dd4613078565b5b60200260200101519050806080015115611e335760068481548110611dfd57611dfc613078565b5b9060005260206000200160009054906101000a900473ffffffffffffffffffffffffffffffffffffffff16945050505050611e5d565b50611e408160ff1661272f565b50611db1565b5050611e518161272f565b50611bf7565b50600090505b90565b60008183611e6e91906137ce565b905092915050565b60005b600680549050811015611f1e576005600060068381548110611e9e57611e9d613078565b5b9060005260206000200160009054906101000a900473ffffffffffffffffffffffffffffffffffffffff1673ffffffffffffffffffffffffffffffffffffffff1673ffffffffffffffffffffffffffffffffffffffff1681526020019081526020016000206000611f0f9190612793565b611f188161272f565b50611e79565b5060066000611f2d91906127b7565b6001600860006101000a81548160ff021916908315150217905550565b600080600090506000805b60068054905081101561218f5760006005600060068481548110611f7c57611f7b613078565b5b9060005260206000200160009054906101000a900473ffffffffffffffffffffffffffffffffffffffff1673ffffffffffffffffffffffffffffffffffffffff1673ffffffffffffffffffffffffffffffffffffffff168152602001908152602001600020805480602002602001604051908101604052809291908181526020016000905b8282101561210657838290600052602060002090600302016040518060c00160405290816000820160009054906101000a900473ffffffffffffffffffffffffffffffffffffffff1673ffffffffffffffffffffffffffffffffffffffff1673ffffffffffffffffffffffffffffffffffffffff1681526020016000820160149054906101000a900460ff1660ff1660ff1681526020016000820160159054906101000a900461ffff1661ffff1661ffff168152602001600182015481526020016002820160009054906101000a900460ff161515151581526020016002820160019054906101000a900460ff16151515158152505081526020019060010190612001565b50505050905060005b81518160ff16101561217e576000828260ff168151811061213357612132613078565b5b602002602001015190508060a001511561215b57600186612154919061312a565b955061216b565b600185612168919061312a565b94505b506121788160ff1661272f565b5061210f565b50506121898161272f565b50611f55565b508082119250505090565b6121a261273c565b6000600680549050836000815181106121be576121bd613078565b5b60200260200101516121d09190613241565b905060008060068373ffffffffffffffffffffffffffffffffffffffff16815481106121ff576121fe613078565b5b9060005260206000200160009054906101000a900473ffffffffffffffffffffffffffffffffffffffff1690506001600560008373ffffffffffffffffffffffffffffffffffffffff1673ffffffffffffffffffffffffffffffffffffffff1681526020019081526020016000208054905011156122e357600560008273ffffffffffffffffffffffffffffffffffffffff1673ffffffffffffffffffffffffffffffffffffffff16815260200190815260200160002080549050856001815181106122ce576122cd613078565b5b60200260200101516122e09190613241565b91505b6001600560008373ffffffffffffffffffffffffffffffffffffffff1673ffffffffffffffffffffffffffffffffffffffff1681526020019081526020016000208373ffffffffffffffffffffffffffffffffffffffff168154811061234c5761234b613078565b5b906000526020600020906003020160020160006101000a81548160ff021916908315150217905550600560008273ffffffffffffffffffffffffffffffffffffffff1673ffffffffffffffffffffffffffffffffffffffff1681526020019081526020016000208273ffffffffffffffffffffffffffffffffffffffff16815481106123db576123da613078565b5b90600052602060002090600302016040518060c00160405290816000820160009054906101000a900473ffffffffffffffffffffffffffffffffffffffff1673ffffffffffffffffffffffffffffffffffffffff1673ffffffffffffffffffffffffffffffffffffffff1681526020016000820160149054906101000a900460ff1660ff1660ff1681526020016000820160159054906101000a900461ffff1661ffff1661ffff168152602001600182015481526020016002820160009054906101000a900460ff161515151581526020016002820160019054906101000a900460ff1615151515815250509350505050919050565b6124d961273c565b60006124e361273c565b60005b6006805490508110156127235782612723576000600560006006848154811061251257612511613078565b5b9060005260206000200160009054906101000a900473ffffffffffffffffffffffffffffffffffffffff1673ffffffffffffffffffffffffffffffffffffffff1673ffffffffffffffffffffffffffffffffffffffff168152602001908152602001600020905060005b81805490508160ff161015612712576000828260ff16815481106125a3576125a2613078565b5b906000526020600020906003020190508860ff168160000160149054906101000a900460ff1660ff161480156125f257508761ffff168160000160159054906101000a900461ffff1661ffff16145b156126ff5760018160020160006101000a81548160ff02191690831515021790555060019550806040518060c00160405290816000820160009054906101000a900473ffffffffffffffffffffffffffffffffffffffff1673ffffffffffffffffffffffffffffffffffffffff1673ffffffffffffffffffffffffffffffffffffffff1681526020016000820160149054906101000a900460ff1660ff1660ff1681526020016000820160159054906101000a900461ffff1661ffff1661ffff168152602001600182015481526020016002820160009054906101000a900460ff161515151581526020016002820160019054906101000a900460ff161515151581525050945050612712565b5061270c8160ff1661272f565b5061257c565b505061271d8161272f565b506124e6565b50809250505092915050565b6000600182019050919050565b6040518060c00160405280600073ffffffffffffffffffffffffffffffffffffffff168152602001600060ff168152602001600061ffff168152602001600081526020016000151581526020016000151581525090565b50805460008255600302906000526020600020908101906127b491906127d8565b50565b50805460008255906000526020600020908101906127d5919061286f565b50565b5b8082111561286b57600080820160006101000a81549073ffffffffffffffffffffffffffffffffffffffff02191690556000820160146101000a81549060ff02191690556000820160156101000a81549061ffff021916905560018201600090556002820160006101000a81549060ff02191690556002820160016101000a81549060ff0219169055506003016127d9565b5090565b5b80821115612888576000816000905550600101612870565b5090565b6000819050919050565b61289f8161288c565b82525050565b60006020820190506128ba6000830184612896565b92915050565b6000604051905090565b600080fd5b600080fd5b6128dd8161288c565b81146128e857600080fd5b50565b6000813590506128fa816128d4565b92915050565b600080fd5b6000601f19601f8301169050919050565b7f4e487b7100000000000000000000000000000000000000000000000000000000600052604160045260246000fd5b61294e82612905565b810181811067ffffffffffffffff8211171561296d5761296c612916565b5b80604052505050565b60006129806128c0565b905061298c8282612945565b919050565b600067ffffffffffffffff8211156129ac576129ab612916565b5b602082029050602081019050919050565b600080fd5b60006129d56129d084612991565b612976565b905080838252602082019050602084028301858111156129f8576129f76129bd565b5b835b81811015612a215780612a0d88826128eb565b8452602084019350506020810190506129fa565b5050509392505050565b600082601f830112612a4057612a3f612900565b5b8135612a508482602086016129c2565b91505092915050565b60008060408385031215612a7057612a6f6128ca565b5b6000612a7e858286016128eb565b925050602083013567ffffffffffffffff811115612a9f57612a9e6128cf565b5b612aab85828601612a2b565b9150509250929050565b600073ffffffffffffffffffffffffffffffffffffffff82169050919050565b6000612ae082612ab5565b9050919050565b612af081612ad5565b8114612afb57600080fd5b50565b600081359050612b0d81612ae7565b92915050565b60008060408385031215612b2a57612b296128ca565b5b6000612b3885828601612afe565b9250506020612b49858286016128eb565b9150509250929050565b6000612b5e82612ab5565b9050919050565b612b6e81612b53565b82525050565b600060ff82169050919050565b612b8a81612b74565b82525050565b600061ffff82169050919050565b612ba781612b90565b82525050565b60008115159050919050565b612bc281612bad565b82525050565b600060c082019050612bdd6000830189612b65565b612bea6020830188612b81565b612bf76040830187612b9e565b612c046060830186612896565b612c116080830185612bb9565b612c1e60a0830184612bb9565b979650505050505050565b6000602082019050612c3e6000830184612bb9565b92915050565b600067ffffffffffffffff82169050919050565b612c6181612c44565b82525050565b6000602082019050612c7c6000830184612c58565b92915050565b612c8b81612ad5565b82525050565b6000602082019050612ca66000830184612c82565b92915050565b612cb581612b74565b8114612cc057600080fd5b50565b600081359050612cd281612cac565b92915050565b612ce181612b90565b8114612cec57600080fd5b50565b600081359050612cfe81612cd8565b92915050565b612d0d81612bad565b8114612d1857600080fd5b50565b600081359050612d2a81612d04565b92915050565b600080600060608486031215612d4957612d486128ca565b5b6000612d5786828701612cc3565b9350506020612d6886828701612cef565b9250506040612d7986828701612d1b565b9150509250925092565b600060208284031215612d9957612d986128ca565b5b6000612da784828501612afe565b91505092915050565b600060208284031215612dc657612dc56128ca565b5b6000612dd4848285016128eb565b91505092915050565b6000604082019050612df26000830185612c82565b612dff6020830184612c82565b9392505050565b7f4e487b7100000000000000000000000000000000000000000000000000000000600052601160045260246000fd5b6000612e408261288c565b9150612e4b8361288c565b9250817fffffffffffffffffffffffffffffffffffffffffffffffffffffffffffffffff0483118215151615612e8457612e83612e06565b5b828202905092915050565b600082825260208201905092915050565b7f4f776e61626c653a2063616c6c6572206973206e6f7420746865206f776e6572600082015250565b6000612ed6602083612e8f565b9150612ee182612ea0565b602082019050919050565b60006020820190508181036000830152612f0581612ec9565b9050919050565b7f5265656e7472616e637947756172643a207265656e7472616e742063616c6c00600082015250565b6000612f42601f83612e8f565b9150612f4d82612f0c565b602082019050919050565b60006020820190508181036000830152612f7181612f35565b9050919050565b7f5061757361626c653a2070617573656400000000000000000000000000000000600082015250565b6000612fae601083612e8f565b9150612fb982612f78565b602082019050919050565b60006020820190508181036000830152612fdd81612fa1565b9050919050565b6000604082019050612ff96000830185612896565b6130066020830184612896565b9392505050565b6000819050919050565b6130208161300d565b82525050565b600060408201905061303b6000830185613017565b6130486020830184613017565b9392505050565b60006040820190506130646000830185612b81565b6130716020830184612b9e565b9392505050565b7f4e487b7100000000000000000000000000000000000000000000000000000000600052603260045260246000fd5b60006060820190506130bc6000830186612b81565b6130c96020830185612b9e565b6130d66040830184612896565b949350505050565b600062ffffff82169050919050565b60006130f8826130de565b9150613103836130de565b92508162ffffff048311821515161561311f5761311e612e06565b5b828202905092915050565b60006131358261288c565b91506131408361288c565b9250827fffffffffffffffffffffffffffffffffffffffffffffffffffffffffffffffff0382111561317557613174612e06565b5b828201905092915050565b7f4f776e61626c653a206e6577206f776e657220697320746865207a65726f206160008201527f6464726573730000000000000000000000000000000000000000000000000000602082015250565b60006131dc602683612e8f565b91506131e782613180565b604082019050919050565b6000602082019050818103600083015261320b816131cf565b9050919050565b7f4e487b7100000000000000000000000000000000000000000000000000000000600052601260045260246000fd5b600061324c8261288c565b91506132578361288c565b92508261326757613266613212565b5b828206905092915050565b600061327d8261288c565b91506132888361288c565b92508261329857613297613212565b5b828204905092915050565b6000819050919050565b6132b6816132a3565b82525050565b600063ffffffff82169050919050565b6132d5816132bc565b82525050565b600060a0820190506132f060008301886132ad565b6132fd6020830187612c58565b61330a6040830186612b9e565b61331760608301856132cc565b61332460808301846132cc565b9695505050505050565b60008151905061333d816128d4565b92915050565b600060208284031215613359576133586128ca565b5b60006133678482850161332e565b91505092915050565b600069ffffffffffffffffffff82169050919050565b61338f81613370565b811461339a57600080fd5b50565b6000815190506133ac81613386565b92915050565b6133bb8161300d565b81146133c657600080fd5b50565b6000815190506133d8816133b2565b92915050565b600080600080600060a086880312156133fa576133f96128ca565b5b60006134088882890161339d565b9550506020613419888289016133c9565b945050604061342a8882890161332e565b935050606061343b8882890161332e565b925050608061344c8882890161339d565b9150509295509295909350565b60008151905061346881612cac565b92915050565b600060208284031215613484576134836128ca565b5b600061349284828501613459565b91505092915050565b60006134a682612b74565b91506134b183612b74565b9250828210156134c4576134c3612e06565b5b828203905092915050565b60008160011c9050919050565b6000808291508390505b60018511156135265780860481111561350257613501612e06565b5b60018516156135115780820291505b808102905061351f856134cf565b94506134e6565b94509492505050565b60008261353f57600190506135fb565b8161354d57600090506135fb565b8160018114613563576002811461356d5761359c565b60019150506135fb565b60ff84111561357f5761357e612e06565b5b8360020a91508482111561359657613595612e06565b5b506135fb565b5060208310610133831016604e8410600b84101617156135d15782820a9050838111156135cc576135cb612e06565b5b6135fb565b6135de84848460016134dc565b925090508184048111156135f5576135f4612e06565b5b81810290505b9392505050565b600061360d8261288c565b91506136188361288c565b92506136457fffffffffffffffffffffffffffffffffffffffffffffffffffffffffffffffff848461352f565b905092915050565b60006136588261300d565b91506136638361300d565b9250827f7fffffffffffffffffffffffffffffffffffffffffffffffffffffffffffffff04821160008413600084131616156136a2576136a1612e06565b5b817f800000000000000000000000000000000000000000000000000000000000000005831260008412600084131616156136df576136de612e06565b5b827f8000000000000000000000000000000000000000000000000000000000000000058212600084136000841216161561371c5761371b612e06565b5b827f7fffffffffffffffffffffffffffffffffffffffffffffffffffffffffffffff058212600084126000841216161561375957613758612e06565b5b828202905092915050565b600061376f8261300d565b915061377a8361300d565b92508261378a57613789613212565b5b600160000383147f8000000000000000000000000000000000000000000000000000000000000000831416156137c3576137c2612e06565b5b828205905092915050565b60006137d98261288c565b91506137e48361288c565b9250828210156137f7576137f6612e06565b5b82820390509291505056fea2646970667358221220f51877a17bd23959c5f38d6c28184ae72f939e719998891c02f35fc946c67d5764736f6c634300080d0033",
  "immutableReferences": {
    "10": [
      {
        "length": 32,
        "start": 809
      },
      {
        "length": 32,
        "start": 893
      }
    ],
    "1003": [
      {
        "length": 32,
        "start": 4777
      }
    ],
    "1006": [
      {
        "length": 32,
        "start": 5207
      },
      {
        "length": 32,
        "start": 5358
      }
    ],
    "1008": [
      {
        "length": 32,
        "start": 4837
      }
    ],
    "1032": [
      {
        "length": 32,
        "start": 2239
      }
    ],
    "1034": [
      {
        "length": 32,
        "start": 3902
      }
    ],
    "1036": [
      {
        "length": 32,
        "start": 5524
      },
      {
        "length": 32,
        "start": 5571
      },
      {
        "length": 32,
        "start": 5647
      }
    ],
    "1038": [
      {
        "length": 32,
        "start": 1184
      },
      {
        "length": 32,
        "start": 3610
      },
      {
        "length": 32,
        "start": 5735
      }
    ]
  },
  "source": "// SPDX-License-Identifier: MIT\npragma solidity ^0.8.13;\n\nimport \"@openzeppelin/contracts/access/Ownable.sol\";\nimport \"@openzeppelin/contracts/security/ReentrancyGuard.sol\";\nimport \"@chainlink/contracts/src/v0.8/interfaces/VRFCoordinatorV2Interface.sol\";\nimport \"@chainlink/contracts/src/v0.8/VRFConsumerBaseV2.sol\";\nimport \"@chainlink/contracts/src/v0.8/interfaces/AggregatorV3Interface.sol\";\nimport \"@openzeppelin/contracts/security/Pausable.sol\";\nimport \"@openzeppelin/contracts/utils/math/SafeMath.sol\";\nimport \"@openzeppelin/contracts/utils/Strings.sol\";\n\ncontract SmartLottery is Ownable, ReentrancyGuard, VRFConsumerBaseV2, Pausable {\n    using SafeMath for uint256;\n\n    struct Ticket {\n        address payable buyer;\n        uint8 number;\n        uint16 serial;\n        uint date;\n        bool winner;\n        bool alwaysWinner;\n    }\n\n    VRFCoordinatorV2Interface private immutable COORDINATOR;\n    AggregatorV3Interface private immutable priceFeed;\n\n    bytes32 private immutable keyHash;\n    uint32 private constant callbackGasLimit = 100_000;\n    uint16 private constant requestConfirmations = 20;\n    uint32 private constant numWords =  2;\n\n    uint256 public s_requestId;\n    uint64 public s_subscriptionId;\n\n    mapping(address => Ticket[]) public game;\n    address[] public players;\n    uint8 private immutable MAX_TICKETS_PLAYER;\n    uint8 private immutable INTERVAL_DAYS;\n    uint8 private immutable POLYGON_DECIMALS;\n    uint8 private immutable TICKET_PRICE;\n    uint256 public lockTime;\n    bool private allowBuy;\n\n    error InvalidAddress();\n    error NotAllowBuyMore();\n    error TicketAlreadyBought(uint8 number, uint16 serial);\n    error NotAllowBuy();\n    error NotEnoughFunds(int256 requested, int256 available);\n    error TimeLockError(uint256 blocTimestamp, uint256 lockTime);\n    error NotPickWinnerYet();\n    error NotWinnerSelectedError();\n\n    event BoughtTicket(address indexed buyer, uint8 number, uint16 serial, uint date);\n    event PickedWinner(uint8 number, uint16 serial, uint date);\n    event TheresNoWinner(uint8 number, uint16 serial, uint date);\n\n    constructor(\n        uint8 _maxTicketsPlayer, \n        address _vrfCoordinator,\n        address _proxyFeed,\n        bytes32 _keyHash, \n        uint8 _intervalDays, \n        uint8 _ticketPrice\n    ) VRFConsumerBaseV2(_vrfCoordinator) {\n        MAX_TICKETS_PLAYER = _maxTicketsPlayer;\n        COORDINATOR = VRFCoordinatorV2Interface(_vrfCoordinator);\n        priceFeed = AggregatorV3Interface(_proxyFeed);\n\n        keyHash = _keyHash;\n        lockTime = block.timestamp + (_intervalDays * 24 hours);\n        INTERVAL_DAYS = _intervalDays;\n        allowBuy = true;\n        TICKET_PRICE = _ticketPrice;\n        POLYGON_DECIMALS = 18;\n\n        createNewSubscription();\n    }\n\n    receive() external payable {}\n\n    function buyTicket(uint8 number, uint16 serial, bool _alwaysWinner) payable public nonReentrant whenNotPaused {\n        if (!allowBuy)\n            revert NotAllowBuy();\n        \n        int256 ticketAmount = getTicketPrice(getLatestTokenPrice());\n        int256 ticketPay = int256(msg.value);\n        if (ticketPay == 0 || ticketPay < ticketAmount)\n            revert NotEnoughFunds(ticketAmount, ticketPay);\n                \n        address player = msg.sender;\n        uint8 totalTicketsBy = getTotalTicketsByUser(player);\n\n        if (totalTicketsBy >= MAX_TICKETS_PLAYER)\n            revert NotAllowBuyMore();\n\n        if (isTicketBought(number, serial))\n            revert TicketAlreadyBought(number, serial);\n\n        Ticket[] storage tickets = game[player];\n        tickets.push(Ticket(payable(player), number, serial, block.timestamp, false, _alwaysWinner));\n\n        if (!isPlayerAdded(player))\n            players.push(player);\n\n        emit BoughtTicket(\n            tickets[totalTicketsBy].buyer, \n            tickets[totalTicketsBy].number, \n            tickets[totalTicketsBy].serial, \n            tickets[totalTicketsBy].date\n        );\n    }\n\n    function pickWinner() public onlyOwner nonReentrant whenNotPaused {\n        if (block.timestamp > lockTime)\n            revert TimeLockError(block.timestamp, lockTime);\n\n        allowBuy = false;\n        requestRandomWords();\n    }\n\n    function payWinner() public onlyOwner nonReentrant whenNotPaused {\n        if (block.timestamp < lockTime)\n            revert TimeLockError(block.timestamp, lockTime);\n\n        address winner = getAddressForWinner();\n        uint256 totalAmount = TICKET_PRICE * players.length;\n        uint256 winnerAmount = getPot();\n\n        if (winner != address(0)) \n            payable(winner).transfer(winnerAmount);\n        \n        payable(owner()).transfer(totalAmount.sub(winnerAmount));\n\n        reset();\n\n        lockTime = block.timestamp + (INTERVAL_DAYS * 24 hours);\n    }\n\n    function getPot() view public returns (uint256) {\n        uint256 totalAmount = TICKET_PRICE * players.length;\n        return totalAmount.div(100).mul(10);\n    }\n\n    // section of private methods\n    function getTotalTicketsByUser(address player) view private returns (uint8) {\n        if (player == address(0))\n            revert InvalidAddress();\n\n        Ticket[] memory tickets = game[player];\n\n        return uint8(tickets.length);\n    }\n\n    // Create a new subscription when the contract is initially deployed.\n    function createNewSubscription() private {\n        // Create a subscription with a new subscription ID.\n        address[] memory consumers = new address[](1);\n        consumers[0] = address(this);\n        s_subscriptionId = COORDINATOR.createSubscription();\n        // Add this contract as a consumer of its own subscription.\n        COORDINATOR.addConsumer(s_subscriptionId, consumers[0]);\n    }\n\n    function requestRandomWords() private whenNotPaused {\n        // Will revert if subscription is not set and funded.\n        s_requestId = COORDINATOR.requestRandomWords(\n            keyHash,\n            s_subscriptionId,\n            requestConfirmations,\n            callbackGasLimit,\n            numWords\n        );\n    }\n\n    function getLatestTokenPrice() view private returns (int256) {\n        (\n            /*uint80 roundID*/,\n            int price,\n            /*uint startedAt*/,\n            /*uint timeStamp*/,\n            /*uint80 answeredInRound*/\n        ) = priceFeed.latestRoundData();\n        uint8 decimals = priceFeed.decimals();\n        int256 result;\n\n        if (decimals == 18)\n            result = price;\n        else if (decimals < POLYGON_DECIMALS)\n            result = price * int256(10 ** uint256(POLYGON_DECIMALS - decimals));\n\n        else\n            result = price * int256(10 ** uint256(decimals - POLYGON_DECIMALS));\n\n        return result;\n    }\n\n    function getTicketPrice(int256 tokenPrice) view private returns (int256) {\n        int256 result;\n        int256 tmpPrice = int8(TICKET_PRICE);\n        int256 ticketPrice = tmpPrice * 1 ether;\n\n        if ((tokenPrice / 1 ether) > 1)\n            result = (tokenPrice / ticketPrice) * 10 ** 18;\n\n        else\n            result = (ticketPrice * tokenPrice) / 10 ** 18;\n\n        return result;\n    }\n\n    function getAddressForWinner() view private returns (address) {\n        for (uint index = 0; index < players.length; increment(index)){\n            Ticket[] memory tickets = game[players[index]];\n\n            for (uint8 ticketIndex = 0; ticketIndex < tickets.length; increment(ticketIndex)) {\n                Ticket memory ticket = tickets[ticketIndex];\n\n                if (ticket.winner)\n                    return players[index];\n            }\n        }\n\n        return address(0);\n    }\n\n    function isAlwaysWinner() view private returns (bool) {\n        uint256 alwaysWinner = 0;\n        uint256 couldBeAWinner = 0;\n\n        for (uint index = 0; index < players.length; increment(index)){\n            Ticket[] memory tickets = game[players[index]];\n\n            for (uint8 ticketIndex = 0; ticketIndex < tickets.length; increment(ticketIndex)) {\n                Ticket memory ticket = tickets[ticketIndex];\n\n                if (ticket.alwaysWinner)\n                    alwaysWinner += 1;\n\n                else\n                    couldBeAWinner += 1;\n            }\n        }\n\n        return alwaysWinner > couldBeAWinner;\n    }\n\n    function handleAlwaysWinner(uint256[] memory randomWords) private returns (Ticket memory) {\n        uint160 indexPlayerWinner = uint160(randomWords[0] % players.length);\n        uint160 indexTicketWinner = 0;\n        address playerWinner = players[indexPlayerWinner];\n        \n        if (game[playerWinner].length > 1) \n            indexTicketWinner = uint160(randomWords[1] % game[playerWinner].length);\n\n        game[playerWinner][indexTicketWinner].winner = true;\n\n        return game[playerWinner][indexTicketWinner];\n    }\n\n    function handleCouldBeAWinner(uint8 number, uint16 serial) private returns (Ticket memory) {\n        bool winner = false;\n        Ticket memory ticketWinner;\n\n        for (uint index = 0; index < players.length; increment(index)){\n            if (winner)\n                break;\n\n            Ticket[] storage tickets = game[players[index]];\n\n            for (uint8 ticketIndex = 0; ticketIndex < tickets.length; increment(ticketIndex)) {\n                Ticket storage ticket = tickets[ticketIndex];\n\n                if (ticket.number == number && ticket.serial == serial) {\n                    ticket.winner = true;\n                    winner = true;\n\n                    ticketWinner = ticket;\n\n                    break;\n                }\n            }\n        }\n\n        return ticketWinner;\n    }\n\n    // section of internal methods\n    function isTicketBought(uint8 _number, uint16 _serial) view internal returns (bool) {\n        for (uint index = 0; index < players.length; increment(index)) {\n            Ticket[] memory tickets = game[players[index]];\n\n            for (uint8 ticketIndex = 0; ticketIndex < tickets.length; increment(ticketIndex)) {\n                Ticket memory ticket = tickets[ticketIndex];\n\n                if (ticket.number == _number && ticket.serial == _serial)\n                    return true;\n            }\n        }\n\n        return false;\n    }\n\n    function isPlayerAdded(address _player) view internal returns (bool) {\n        for (uint index = 0; index < players.length; increment(index)) {\n            if (players[index] == _player)\n                return true;\n        }\n\n        return false;\n    }\n\n    function reset() internal {\n        for (uint index = 0; index < players.length; increment(index)) {\n            delete game[players[index]];\n        }\n\n        delete players;\n        allowBuy = true;\n    }\n\n    function fulfillRandomWords(\n        uint256, /* requestId */\n        uint256[] memory randomWords\n    ) internal override {\n        Ticket memory ticketWinner;\n\n        if (isAlwaysWinner()) {\n            ticketWinner = handleAlwaysWinner(randomWords);\n\n            emit PickedWinner(ticketWinner.number, ticketWinner.serial, block.timestamp);\n\n        } else {\n            uint8 number = uint8(randomWords[0] % 99);\n            uint16 serial = uint16(randomWords[1] % 999);\n            \n            ticketWinner = handleCouldBeAWinner(number, serial);\n\n            if (ticketWinner.winner)\n                emit PickedWinner(ticketWinner.number, ticketWinner.serial, block.timestamp);\n\n            else\n                emit TheresNoWinner(number, serial, block.timestamp);\n        }\n    }\n\n    function increment(uint i) internal pure returns (uint) {\n        unchecked { return i + 1;}\n    }\n}",
  "sourcePath": "/home/pi/Projects/Solidity/smart-lottery/blockchain/contracts/SmartLottery.sol",
  "compiler": {
    "name": "solc",
    "version": "0.8.13+commit.abaa5c0e.Emscripten.clang"
  },
  "schemaVersion": "3.4.7",
  "updatedAt": "2022-05-22T18:02:13.157Z",
  "networkType": "ethereum",
  "devdoc": {
    "kind": "dev",
    "methods": {
      "owner()": {
        "details": "Returns the address of the current owner."
      },
      "paused()": {
        "details": "Returns true if the contract is paused, and false otherwise."
      },
      "renounceOwnership()": {
        "details": "Leaves the contract without owner. It will not be possible to call `onlyOwner` functions anymore. Can only be called by the current owner. NOTE: Renouncing ownership will leave the contract without an owner, thereby removing any functionality that is only available to the owner."
      },
      "transferOwnership(address)": {
        "details": "Transfers ownership of the contract to a new account (`newOwner`). Can only be called by the current owner."
      }
    },
    "version": 1
  },
  "userdoc": {
    "kind": "user",
    "methods": {},
    "version": 1
  }
}